{
  "_format": "hh-sol-artifact-1",
  "contractName": "VotingDApp",
  "sourceName": "contracts/VotingDApp.sol",
  "abi": [
    {
      "inputs": [
        {
          "internalType": "string",
          "name": "_title",
          "type": "string"
        },
        {
          "internalType": "uint256",
          "name": "_durationInSeconds",
          "type": "uint256"
        }
      ],
      "name": "createVotingEvent",
      "outputs": [],
      "stateMutability": "nonpayable",
      "type": "function"
    },
    {
      "inputs": [
        {
          "internalType": "uint256",
          "name": "_eventId",
          "type": "uint256"
        },
        {
          "internalType": "uint256",
          "name": "_candidateId",
          "type": "uint256"
        }
      ],
      "name": "getCandidate",
      "outputs": [
        {
          "internalType": "uint256",
          "name": "id",
          "type": "uint256"
        },
        {
          "internalType": "string",
          "name": "name",
          "type": "string"
        },
        {
          "internalType": "uint256",
          "name": "voteCount",
          "type": "uint256"
        }
      ],
      "stateMutability": "view",
      "type": "function"
    },
    {
      "inputs": [],
      "name": "getCurrentTime",
      "outputs": [
        {
          "internalType": "uint256",
          "name": "",
          "type": "uint256"
        }
      ],
      "stateMutability": "view",
      "type": "function"
    },
    {
      "inputs": [
        {
          "internalType": "uint256",
          "name": "_eventId",
          "type": "uint256"
        }
      ],
      "name": "getVotingEventEndTime",
      "outputs": [
        {
          "internalType": "uint256",
          "name": "",
          "type": "uint256"
        }
      ],
      "stateMutability": "view",
      "type": "function"
    },
    {
      "inputs": [
        {
          "internalType": "uint256",
          "name": "_eventId",
          "type": "uint256"
        }
      ],
      "name": "getWinner",
      "outputs": [
        {
          "internalType": "string",
          "name": "winnerName",
          "type": "string"
        }
      ],
      "stateMutability": "nonpayable",
      "type": "function"
    },
    {
      "inputs": [
        {
          "internalType": "uint256",
          "name": "_eventId",
          "type": "uint256"
        },
        {
          "internalType": "string",
          "name": "_name",
          "type": "string"
        }
      ],
      "name": "registerCandidate",
      "outputs": [],
      "stateMutability": "nonpayable",
      "type": "function"
    },
    {
      "inputs": [
        {
          "internalType": "uint256",
          "name": "_eventId",
          "type": "uint256"
        }
      ],
      "name": "viewWinner",
      "outputs": [
        {
          "internalType": "string",
          "name": "",
          "type": "string"
        }
      ],
      "stateMutability": "view",
      "type": "function"
    },
    {
      "inputs": [
        {
          "internalType": "uint256",
          "name": "_eventId",
          "type": "uint256"
        },
        {
          "internalType": "uint256",
          "name": "_candidateId",
          "type": "uint256"
        }
      ],
      "name": "vote",
      "outputs": [],
      "stateMutability": "nonpayable",
      "type": "function"
    },
    {
      "inputs": [],
      "name": "votingEventCount",
      "outputs": [
        {
          "internalType": "uint256",
          "name": "",
          "type": "uint256"
        }
      ],
      "stateMutability": "view",
      "type": "function"
    },
    {
      "inputs": [
        {
          "internalType": "uint256",
          "name": "",
          "type": "uint256"
        }
      ],
      "name": "votingEvents",
      "outputs": [
        {
          "internalType": "uint256",
          "name": "id",
          "type": "uint256"
        },
        {
          "internalType": "string",
          "name": "title",
          "type": "string"
        },
        {
          "internalType": "uint256",
          "name": "endTime",
          "type": "uint256"
        },
        {
          "internalType": "uint256",
          "name": "candidateCount",
          "type": "uint256"
        },
        {
          "internalType": "bool",
          "name": "winnerDeclared",
          "type": "bool"
        },
        {
          "internalType": "uint256",
          "name": "winningCandidateId",
          "type": "uint256"
        }
      ],
      "stateMutability": "view",
      "type": "function"
    }
  ],
  "bytecode": "0x6080604052348015600f57600080fd5b506115098061001f6000396000f3fe608060405234801561001057600080fd5b506004361061009e5760003560e01c80639947f576116100665780639947f5761461016f578063a7cad8141461018d578063b384abef146101bd578063bf9b48a7146101d9578063d10093671461020e5761009e565b80631f197a73146100a357806329cb924d146100d35780634129b2c9146100f15780634bd4644814610121578063657a892714610153575b600080fd5b6100bd60048036038101906100b89190610acb565b61022a565b6040516100ca9190610b88565b60405180910390f35b6100db610340565b6040516100e89190610bb9565b60405180910390f35b61010b60048036038101906101069190610acb565b610348565b6040516101189190610b88565b60405180910390f35b61013b60048036038101906101369190610bd4565b610532565b60405161014a93929190610c14565b60405180910390f35b61016d60048036038101906101689190610d87565b610656565b005b6101776106bc565b6040516101849190610bb9565b60405180910390f35b6101a760048036038101906101a29190610acb565b6106c2565b6040516101b49190610bb9565b60405180910390f35b6101d760048036038101906101d29190610bd4565b6106e1565b005b6101f360048036038101906101ee9190610acb565b6108cf565b60405161020596959493929190610dfe565b60405180910390f35b61022860048036038101906102239190610e66565b6109a0565b005b6060600080600084815260200190815260200160002090508060060160009054906101000a900460ff16610293576040517f08c379a000000000000000000000000000000000000000000000000000000000815260040161028a90610f0e565b60405180910390fd5b8060030160008260070154815260200190815260200160002060010180546102ba90610f5d565b80601f01602080910402602001604051908101604052809291908181526020018280546102e690610f5d565b80156103335780601f1061030857610100808354040283529160200191610333565b820191906000526020600020905b81548152906001019060200180831161031657829003601f168201915b5050505050915050919050565b600042905090565b60606000806000848152602001908152602001600020905080600201544210156103a7576040517f08c379a000000000000000000000000000000000000000000000000000000000815260040161039e90610fda565b60405180910390fd5b8060060160009054906101000a900460ff16156103f9576040517f08c379a00000000000000000000000000000000000000000000000000000000081526004016103f090611046565b60405180910390fd5b6000806000600190505b83600401548111610460578284600301600083815260200190815260200160002060020154111561044d578360030160008281526020019081526020016000206002015492508091505b808061045890611095565b915050610403565b5060018360060160006101000a81548160ff02191690831515021790555080836007018190555082600301600082815260200190815260200160002060010180546104aa90610f5d565b80601f01602080910402602001604051908101604052809291908181526020018280546104d690610f5d565b80156105235780601f106104f857610100808354040283529160200191610523565b820191906000526020600020905b81548152906001019060200180831161050657829003601f168201915b50505050509350505050919050565b6000606060008060008087815260200190815260200160002090508060040154851115610594576040517f08c379a000000000000000000000000000000000000000000000000000000000815260040161058b90611129565b60405180910390fd5b6000816003016000878152602001908152602001600020905080600001548160010182600201548180546105c790610f5d565b80601f01602080910402602001604051908101604052809291908181526020018280546105f390610f5d565b80156106405780601f1061061557610100808354040283529160200191610640565b820191906000526020600020905b81548152906001019060200180831161062357829003601f168201915b5050505050915094509450945050509250925092565b6001600081548092919061066990611095565b91905055506000806000600154815260200190815260200160002090506001548160000181905550828160010190816106a291906112f5565b5081426106af91906113c7565b8160020181905550505050565b60015481565b6000806000838152602001908152602001600020600201549050919050565b600080600084815260200190815260200160002090508060020154421061073d576040517f08c379a000000000000000000000000000000000000000000000000000000000815260040161073490611447565b60405180910390fd5b8060050160003373ffffffffffffffffffffffffffffffffffffffff1673ffffffffffffffffffffffffffffffffffffffff16815260200190815260200160002060000160009054906101000a900460ff16156107cf576040517f08c379a00000000000000000000000000000000000000000000000000000000081526004016107c6906114b3565b60405180910390fd5b8060040154821115610816576040517f08c379a000000000000000000000000000000000000000000000000000000000815260040161080d90611129565b60405180910390fd5b6040518060400160405280600115158152602001838152508160050160003373ffffffffffffffffffffffffffffffffffffffff1673ffffffffffffffffffffffffffffffffffffffff16815260200190815260200160002060008201518160000160006101000a81548160ff0219169083151502179055506020820151816001015590505080600301600083815260200190815260200160002060020160008154809291906108c590611095565b9190505550505050565b60006020528060005260406000206000915090508060000154908060010180546108f890610f5d565b80601f016020809104026020016040519081016040528092919081815260200182805461092490610f5d565b80156109715780601f1061094657610100808354040283529160200191610971565b820191906000526020600020905b81548152906001019060200180831161095457829003601f168201915b5050505050908060020154908060040154908060060160009054906101000a900460ff16908060070154905086565b60008060008481526020019081526020016000209050806002015442106109fc576040517f08c379a00000000000000000000000000000000000000000000000000000000081526004016109f390611447565b60405180910390fd5b806004016000815480929190610a1190611095565b9190505550604051806060016040528082600401548152602001838152602001600081525081600301600083600401548152602001908152602001600020600082015181600001556020820151816001019081610a6e91906112f5565b5060408201518160020155905050505050565b6000604051905090565b600080fd5b600080fd5b6000819050919050565b610aa881610a95565b8114610ab357600080fd5b50565b600081359050610ac581610a9f565b92915050565b600060208284031215610ae157610ae0610a8b565b5b6000610aef84828501610ab6565b91505092915050565b600081519050919050565b600082825260208201905092915050565b60005b83811015610b32578082015181840152602081019050610b17565b60008484015250505050565b6000601f19601f8301169050919050565b6000610b5a82610af8565b610b648185610b03565b9350610b74818560208601610b14565b610b7d81610b3e565b840191505092915050565b60006020820190508181036000830152610ba28184610b4f565b905092915050565b610bb381610a95565b82525050565b6000602082019050610bce6000830184610baa565b92915050565b60008060408385031215610beb57610bea610a8b565b5b6000610bf985828601610ab6565b9250506020610c0a85828601610ab6565b9150509250929050565b6000606082019050610c296000830186610baa565b8181036020830152610c3b8185610b4f565b9050610c4a6040830184610baa565b949350505050565b600080fd5b600080fd5b7f4e487b7100000000000000000000000000000000000000000000000000000000600052604160045260246000fd5b610c9482610b3e565b810181811067ffffffffffffffff82111715610cb357610cb2610c5c565b5b80604052505050565b6000610cc6610a81565b9050610cd28282610c8b565b919050565b600067ffffffffffffffff821115610cf257610cf1610c5c565b5b610cfb82610b3e565b9050602081019050919050565b82818337600083830152505050565b6000610d2a610d2584610cd7565b610cbc565b905082815260208101848484011115610d4657610d45610c57565b5b610d51848285610d08565b509392505050565b600082601f830112610d6e57610d6d610c52565b5b8135610d7e848260208601610d17565b91505092915050565b60008060408385031215610d9e57610d9d610a8b565b5b600083013567ffffffffffffffff811115610dbc57610dbb610a90565b5b610dc885828601610d59565b9250506020610dd985828601610ab6565b9150509250929050565b60008115159050919050565b610df881610de3565b82525050565b600060c082019050610e136000830189610baa565b8181036020830152610e258188610b4f565b9050610e346040830187610baa565b610e416060830186610baa565b610e4e6080830185610def565b610e5b60a0830184610baa565b979650505050505050565b60008060408385031215610e7d57610e7c610a8b565b5b6000610e8b85828601610ab6565b925050602083013567ffffffffffffffff811115610eac57610eab610a90565b5b610eb885828601610d59565b9150509250929050565b7f57696e6e6572206e6f74206465636c6172656400000000000000000000000000600082015250565b6000610ef8601383610b03565b9150610f0382610ec2565b602082019050919050565b60006020820190508181036000830152610f2781610eeb565b9050919050565b7f4e487b7100000000000000000000000000000000000000000000000000000000600052602260045260246000fd5b60006002820490506001821680610f7557607f821691505b602082108103610f8857610f87610f2e565b5b50919050565b7f566f74696e67206e6f742079657420656e646564000000000000000000000000600082015250565b6000610fc4601483610b03565b9150610fcf82610f8e565b602082019050919050565b60006020820190508181036000830152610ff381610fb7565b9050919050565b7f57696e6e657220616c7265616479206465636c61726564000000000000000000600082015250565b6000611030601783610b03565b915061103b82610ffa565b602082019050919050565b6000602082019050818103600083015261105f81611023565b9050919050565b7f4e487b7100000000000000000000000000000000000000000000000000000000600052601160045260246000fd5b60006110a082610a95565b91507fffffffffffffffffffffffffffffffffffffffffffffffffffffffffffffffff82036110d2576110d1611066565b5b600182019050919050565b7f496e76616c69642063616e646964617465000000000000000000000000000000600082015250565b6000611113601183610b03565b915061111e826110dd565b602082019050919050565b6000602082019050818103600083015261114281611106565b9050919050565b60008190508160005260206000209050919050565b60006020601f8301049050919050565b600082821b905092915050565b6000600883026111ab7fffffffffffffffffffffffffffffffffffffffffffffffffffffffffffffffff8261116e565b6111b5868361116e565b95508019841693508086168417925050509392505050565b6000819050919050565b60006111f26111ed6111e884610a95565b6111cd565b610a95565b9050919050565b6000819050919050565b61120c836111d7565b611220611218826111f9565b84845461117b565b825550505050565b600090565b611235611228565b611240818484611203565b505050565b5b818110156112645761125960008261122d565b600181019050611246565b5050565b601f8211156112a95761127a81611149565b6112838461115e565b81016020851015611292578190505b6112a661129e8561115e565b830182611245565b50505b505050565b600082821c905092915050565b60006112cc600019846008026112ae565b1980831691505092915050565b60006112e583836112bb565b9150826002028217905092915050565b6112fe82610af8565b67ffffffffffffffff81111561131757611316610c5c565b5b6113218254610f5d565b61132c828285611268565b600060209050601f83116001811461135f576000841561134d578287015190505b61135785826112d9565b8655506113bf565b601f19841661136d86611149565b60005b8281101561139557848901518255600182019150602085019450602081019050611370565b868310156113b257848901516113ae601f8916826112bb565b8355505b6001600288020188555050505b505050505050565b60006113d282610a95565b91506113dd83610a95565b92508282019050808211156113f5576113f4611066565b5b92915050565b7f566f74696e6720656e6465640000000000000000000000000000000000000000600082015250565b6000611431600c83610b03565b915061143c826113fb565b602082019050919050565b6000602082019050818103600083015261146081611424565b9050919050565b7f416c726561647920766f74656400000000000000000000000000000000000000600082015250565b600061149d600d83610b03565b91506114a882611467565b602082019050919050565b600060208201905081810360008301526114cc81611490565b905091905056fea264697066735822122090c3825a6ff4af56500de936614a1e934227dc6ea1a64452f2062b982e16f65a64736f6c634300081c0033",
  "linkReferences": {},
  "deployedLinkReferences": {}
}